:020000040800F2
:10000000600500209D010008471F0008FD1B000837
:10001000451F000889070008852800080000000027
:10002000000000000000000000000000992300080C
:10003000BD07000800000000491F00089B230008BE
:10004000B7010008B7010008B7010008B7010008B0
:10005000B7010008B7010008B7010008B7010008A0
:10006000B7010008B7010008B7010008B701000890
:10007000B7010008B7010008B7010008B701000880
:10008000B7010008B7010008B7010008B701000870
:10009000B7010008B7010008B7010008B701000860
:1000A000B7010008B7010008B7010008B701000850
:1000B000B7010008B7010008B7010008B701000840
:1000C000B7010008B7010008B7010008B701000830
:1000D000B7010008B7010008B7010008B701000820
:1000E000B7010008B7010008B7010008B701000810
:1000F000B7010008B7010008B7010008B701000800
:10010000B7010008B7010008B7010008B7010008EF
:10011000B7010008B7010008B7010008B7010008DF
:10012000B7010008B7010008B7010008B7010008CF
:10013000B7010008B7010008B7010008B7010008BF
:10014000B7010008B7010008B7010008B7010008AF
:10015000B7010008B7010008B7010008B70100089F
:10016000B7010008B7010008B7010008B70100088F
:10017000B7010008B7010008B7010008000000003F
:10018000B7010008B7010008DFF80CD000F0EAFA68
:1001900000480047BD310008600500200648804740
:1001A00006480047FEE7FEE7FEE7FEE7FEE7FEE75C
:1001B000FEE7FEE7FEE7FEE73124000889010008BC
:1001C0002DE9F05F0546002092469B46884606468C
:1001D000814640241BE0284641464746224600F01F
:1001E0002AFA53465A46C01A914110D3114618466E
:1001F000224600F011FA2D1A67EB01084F462246FD
:100200000120002100F008FA17EB00094E41201EE2
:10021000A4F10104DFDC484631462A46434600F09B
:1002200000B830BCBDE8C09FD2B201E000F8012B9D
:10023000491EFBD270470022F6E710B513460A4666
:1002400004461946FFF7F0FF204610BD2DE9FE4F8A
:10025000804681EA0300C00F0C46009021F0004167
:1002600023F00045B8EB0200A94105D240462146E3
:1002700090461C460B46024623F00040104347D0F0
:10028000270DC7F30A00C3F30A510290401A0190E8
:1002900040286BDAC3F3130040F4801B00989246A9
:1002A00020B10023D2EB030A63EB0B0B01985946F4
:1002B000C0F14002504600F0AFF906460D465046E8
:1002C0005946019A00F0C7F910EB0800614100247B
:1002D00087EA115284EAE7731A4340D0009A62B366
:1002E000019A012A4FEA075215DC001B61EB02015B
:1002F0004FF0004202EA0752CDE90042001C41F5EE
:10030000801132462B4600F0C7F903B000F045B823
:1003100040462146F9E7001B61EB0201001C41F554
:10032000801300185B412018A2F5001747EB03016A
:1003300040EAD570B6196D4111E06D084FEA3606F6
:1003400045EAC0754FEA0752001B61EB0201001C31
:1003500041F5801149084FEA3000001951413246F9
:100360002B4603B000F01CB800F087B900980122BA
:1003700040000023D0EB020263EBE07300982146BB
:100380004FEAE074B8EB000061EB0401E9E783F0A9
:1003900000435BE781F0004158E730BCBDE8C08F07
:1003A00030BCBDE8C04FFFF7DFBF2DE9FE4F81EA4B
:1003B000030404F0004421F0004100944FF0000BCE
:1003C00023F0004350EA01045ED052EA03045BD0FC
:1003D000C3F30A54C1F30A552C44A4F2F334019434
:1003E000A0FB0254C1F3130141F48011C3F31303C2
:1003F00043F4801301FB024400FB034E840A970A76
:1004000044EA815447EA8357A4FB076802958D0AA2
:1004100005FB07854FEA932C04FB0C542705029D2E
:100420004FEA065847EA1637B5EB08056EEB070C9E
:10043000870E920E47EA811742EA8312A7FB020158
:10044000B6EB0B0164EB00042B0D43EA0C335E1892
:1004500044EB1C50DA465146E7FB0201C5F3130496
:100460004FEA0B3343EA14534FEA0432019C43EA48
:100470000603A4F10C040294009CCDE900B400F042
:100480000BF903B000F003B800200146F9E730BCD7
:10049000BDE8C08F2DE9F04D81EA030404F0004B64
:1004A00021F0004514464FF0000A23F0004150EAC5
:1004B000050220D054EA01021DD0C5F30A570246B6
:1004C000C5F31303C1F31300C1F30A5640F48015BA
:1004D00043F48013A7EB0608101BD64608F2FD383C
:1004E00073EB050002D308F1010801E092185B41AB
:1004F000B8F1000F03DA00200146BDE8F08D0020BE
:100500004FF48011064684460EE0171B73EB050777
:1005100005D3121B63EB050306434CEA010C4908A3
:100520004FEA300092185B4150EA0107EDD152EAE0
:10053000030012D082EA040083EA0501084305D0D3
:10054000101BAB4106D20122002306E000224FF02F
:10055000004302E06FF0010253101AEB06004CEB6F
:10056000085110EB0A0041EB0B01BDE8F04D00F023
:1005700084B80EB540F2334102910021CDE900115B
:100580000A460B4600F088F803B000BD30B5041EE3
:1005900071F1000404DB4FF00044404264EB0101C0
:1005A000141E73F1000405DB1C464FF00043524259
:1005B00063EB04038B4208BF824230BD30B5041E9A
:1005C00071F1000404DB4FF00044404264EB010190
:1005D000141E73F1000405DB1C464FF00043524229
:1005E00063EB0403994208BF904230BD30B50B461F
:1005F000014600202022012409E021FA02F59D4253
:1006000005D303FA02F5491B04FA02F52844151E26
:10061000A2F10102F1DC30BD202A04DB203A00FA0D
:1006200002F1002070479140C2F1200320FA03F349
:10063000194390407047202A04DB203A21FA02F047
:100640000021704721FA02F3D040C2F1200291400C
:10065000084319467047202A06DBCB17203A41FA97
:1006600002F043EAE07306E041FA02F3D040C2F13F
:100670002002914008431946704710B5141E73F1CB
:10068000000408DA401C41F1000192185B411A4352
:1006900001D120F0010010BD2DE9F04D92469B469E
:1006A00011B1B1FA81F202E0B0FA80F22032904644
:1006B000FFF7B2FF04460F4640EA0A0041EA0B0189
:1006C00053465A46084313D0114653EA010019D045
:1006D000C8F140025046FFF7AEFF05460E465046B1
:1006E00059464246FFF798FF084305D0012004E031
:1006F00020463946BDE8F08D0020054346EAE07605
:100700002C4337430A986305E40AA0EB0800002253
:10071000FD0A44EA47540A3002D500200146E9E7C1
:10072000010510196941DDE9084500196941BDE875
:10073000F04DA2E7C1F30A52C1F3130140F2FF33B7
:1007400041F480119A4202DA00200146704740F2DB
:1007500033439A42A2F2334202DC5242FFF76BBFAC
:10076000FFF75ABF064C074D06E0E06840F0010372
:1007700094E8070098471034AC42F6D3FFF708FD21
:10078000BC320008DC320008FEE730B50346002228
:10079000084640F23114995C48400021050602D514
:1007A00084EA400000E04000491CC9B2C0B20829F8
:1007B000F4D3521CD2B2022AEDD330BD704772B6C8
:1007C000FEE7000070B5044600F042F90546601CE3
:1007D00002D004480078044400F03AF9401BA042DB
:1007E000FAD370BD000000202DE9F04FDFF83492FD
:1007F000002309F1040A012403250AF1040B87B040
:100800000F270BF1040E04E104FA03F632407CD00A
:10081000D1F804C0BCF1010F08D0BCF1020F05D023
:10082000BCF1110F02D0BCF1120F29D1D0F808C0D1
:10083000CDF800C04FEA430C05FA0CF8CDF80CC017
:10084000DDF800C02CEA080CCDF800C0D1F80C800F
:10085000DDF80CC008FA0CF8DDF800C048EA0C0816
:10086000C0F80880D0F8048091F804C028EA06088F
:10087000CCF3001C0CFA03FC4CEA080CC0F804C0D2
:10088000D1F804806FEA080C5FEA8C7C09D1D0F8BB
:100890002CC02CEA060CC8F3C0069E4046EA0C06A3
:1008A000C662D0F80CC04FEA430805FA08F62CEAF5
:1008B000060CCDF8148002968E6806FA08F646EA11
:1008C0000C06C6604E68022E01D0122E15D1DE082D
:1008D00000EB86060396366A4FEA437C4FEADC68F3
:1008E00007FA08FC26EA0C06D1F810C00CFA08FC3E
:1008F0004CEA060C039EC6F820C00668DDF808C066
:1009000026EA0C0691F804C000E081E0DDF81480CE
:100910000CF0030C0CFA08FC4CEA060CC0F800C002
:100920004E68F60074D5404ED6F860C04CF0010C0D
:10093000C6F860C0366E23F0030C06F00106009680
:100940003A4E66440296D6F808C09E074FEA1678DB
:1009500007FA08F62CEA060CB0F1904F04D0344E9A
:10096000B04203D101261BE0002619E0314EB0420F
:1009700001D1022614E0304EB04201D103260FE02F
:100980002E4EB04201D104260AE02D4EB04201D1D4
:10099000052605E02B4EB04201D1062600E00726D1
:1009A00006FA08F646EA0C06DDF808C0CCF808603E
:1009B000D9F80060CC46D1F8048096435FEAC83885
:1009C00000D51643CCF80060DAF80060D446D1F8C0
:1009D000048096435FEA883800D51643CCF800605F
:1009E000DBF80060DC46D1F8048096435FEAC82853
:1009F00000D51643CCF80060DEF80060F446D1F86C
:100A0000048096435FEA882800D51643CCF800603E
:100A10005B1C0A6832FA03F67FF4F6AE07B000F00A
:100A200013B8000000040140001002400000014023
:100A30000004004800080048000C0048001000486E
:100A4000001400480018004830BCBDE8C08F00000A
:100A500001488068704700000000002090F84120A5
:100A6000202A24D190F84020012A20D0012280F8A9
:100A70004020242280F841200268136823F00103FB
:100A800013600268136823F48053136002681368CC
:100A90000B43136001680A6842F001020A602021DA
:100AA00080F84110002180F840100846704702206D
:100AB000704790F84120202A22D190F84020012A46
:100AC0001ED0012280F84020242280F841200268B4
:100AD000136823F0010313600268136823F4706342
:100AE00043EA0121116001680A6842F001020A60CC
:100AF000202180F84110002180F8401008467047FE
:100B00000220704770B5040004D094F8410000251D
:100B100010B106E0012070BD84F84050204600F07E
:100B200079F9242084F841002068016821F001014E
:100B300001606068216820F0706008612068816849
:100B400021F400418160E0680128A06807D040F4EA
:100B5000044021688860E068022803D006E040F481
:100B60000040F6E721684FF4006048602068416863
:100B7000114A114341602068C16821F40041C160FD
:100B8000D4E904010843A16940EA01202168C86052
:100B9000D4E907010843216808602068016841F032
:100BA000010101606564202084F84100256384F818
:100BB0004250002070BD0000008000022DE9F84F77
:100BC000044690F84100DDF828A01F4690468B4669
:100BD00020287ED194F8400001287AD0012084F8A2
:100BE0004000FFF735FF0646012200901923D1038C
:100BF000204601F06DF8E0BB222084F8410010206F
:100C000084F8420000256564C4F824806785656324
:100C1000618D3148FF274FF080784FF00079FF2930
:100C200003D927853A46009039E0618D21850090EF
:100C30003AE05946204601F035F813E001F074F827
:100C4000B8B92068406A616A0870606A401C6062D6
:100C5000208D401E80B22085618D491E6185618D89
:100C600001B168B1608D3246002851462046E5D179
:100C700000E002E001F09AF8D0B1012000F030B8B5
:100C80005346002280212046009601F021F80028DA
:100C9000F3D1608DFF2804D927853A460095434655
:100CA000C7E7608D2085009594F828204B46C0E763
:100CB00021682020C86121684A68084B1A404A60B0
:100CC00084F8410084F8425084F840500020D5E771
:100CD000FFE70220D2E700000024008000E800FEC9
:100CE00018BCBDE8E08F00002DE9F84F044690F8ED
:100CF0004100DDF828A01F4690468B4620287ED173
:100D000094F8400001287AD0012084F84000FFF7D1
:100D10009FFE0646012200901923D103204600F0D1
:100D2000D7FFE0BB212084F84100102084F8420066
:100D300000256564C4F8248067856563618D31484A
:100D4000FF274FF080784FF00079FF2903D92785DE
:100D50003A46009039E0618D218500903AE059468D
:100D6000204600F09FFF13E001F046F8B8B9606A32
:100D7000216800788862606A401C6062608D401E55
:100D80006085208D401E80B22085618D01B168B1E3
:100D9000608D3246002851462046E5D100E002E051
:100DA00001F004F8D0B1012000F030B85346002221
:100DB00080212046009600F08BFF0028F3D1608D43
:100DC000FF2804D927853A4600954346C7E7608D3A
:100DD0002085009594F828204B46C0E72168202004
:100DE000C86121684A68084B1A404A6084F841008B
:100DF00084F8425084F840500020D5E7FFE70220F5
:100E0000D2E700000020008000E800FE18BCBDE82A
:100E1000E08F000010B586B0044614216846FFF745
:100E20000AFA1349206888421FD1124CE06C40F046
:100E30000200E064E06C694600F0020005904FF4A7
:100E40004060009012200190012002900320039046
:100E5000042004900848FFF7C7FCA06D40F4800010
:100E6000A065A06D00F48000059006B010BD0000E4
:100E70000058004000100240000400480248816809
:100E800002781144816070470000002010B50024F2
:100E9000032000F063F8002000F008F808B10124F6
:100EA00001E000F025F8204610BD000070B50E4EA0
:100EB00005460024307898B14FF47A71B1FBF0F018
:100EC0000A490968B1FBF0F000F008FE40B9102DA6
:100ED00006D200222946501E00F020F8756000E07E
:100EE0000124204670BD0000000000200C000020FE
:100EF000094808B5016E41F001010166016E01F07B
:100F000001010091816D41F080518165806D00F09B
:100F10008050009008BD000000100240F0B40E4B5D
:100F20001B680C46C3F30223C3F10705042D00D947
:100F30000425191D072901D2002300E0DB1E01262C
:100F400006FA05F1491E214099409E40761E164042
:100F50003143F0BC01F0A8BC0CED00E0064900F004
:100F6000070208684FF6FF03184040EA0220034AD0
:100F700010430860704700000CED00E00000FA0527
:100F80001649B0F5007F0868C0F3412009D0022857
:100F900005D0086820F4C06040F48060086000203C
:100FA00070470128FBD0086820F4C06040F400704E
:100FB00008600B483222006850430A4AB0FBF2F046
:100FC000401C00E0401E4A69520501D50028F9D1B5
:100FD00048694005E3D503207047000000700040D9
:100FE0000C00002040420F000248006800F4C0607E
:100FF00070470000007000402DE9F84F04460027BC
:101000000088E54D3E46010504F1200B1DD5606EBC
:1010100078B1B0F5800F11D0B0F5000F04D0B0F565
:10102000400F22D001270FE0E86840F48030E860EC
:101030001BE00021201D00F089FF03E0002158463D
:1010400001F01AF8070010D03E462088C00426D5CB
:10105000A06EC0B1B0F1807F1AD0B0F1007F0DD08A
:10106000B0F1407F19D0012718E0D5F88800616EF3
:1010700020F440000843C5F88800E6E7E86840F43B
:101080008030E86009E00021201D00F05FFF03E0F0
:101090000021584600F0F0FF0746F7B13E462068B1
:1010A00080033AD5A86D4FF00008C00009D4A86DA0
:1010B00040F08050A865A86D4FF0010800F0805006
:1010C0000090DFF8D8A2DAF8001041F48071CAF875
:1010D0000010FFF7BDFC814610E0D5F88800A16E36
:1010E00020F040700843C5F88800D8E7FFF7B0FC4F
:1010F000A0EB0900022801D9032705E0DAF8000077
:10110000C005F3D5002F7CD04FEA0706B8F1000FD9
:1011100003D0A86D20F08050A8652078C00707D0C4
:10112000D5F88800A16B20F003000843C5F88800BB
:101130002078800707D5D5F88800E16B20F00C00F7
:101140000843C5F888002078400707D5D5F88800FF
:10115000216C20F030000843C5F888002078000793
:1011600007D5D5F88800616C20F0C0000843C5F8A9
:1011700088002078C00607D5D5F88800A16C20F437
:1011800040700843C5F888002078800607D5D5F858
:101190008800E16C20F440600843C5F8880020888E
:1011A000800507D5D5F88800E16D20F4402008437C
:1011B000C5F888002088400507D5D5F88800216E3D
:1011C00020F440100843C5F888002078400607D571
:1011D000D5F88800216D20F440500843C5F88800F8
:1011E0002078000607D5D5F88800616D20F44040CE
:1011F0000843C5F888002088C00509D5D5F88800BF
:1012000000E01CE0A16D20F440300843C5F88800E0
:1012100020884FF0006780044FF080684FD5D5F8E4
:101220008800E16E20F040600843C5F88800E06E59
:10123000B8423CD1E86840F48010E8603FE0D5F85F
:10124000900010F4407015D0D4F88410814211D071
:10125000D5F89000D5F8901020F4407041F480311A
:10126000C5F89010D5F8901021F48031C5F8901091
:10127000C5F89000C00710D0FFF7EAFB074641F21F
:10128000883906E0FFF7E4FBC11B494501D9032675
:101290003CE7D5F890008007F4D5D5F89000D4F855
:1012A000841020F440700843C5F890002EE74045B4
:1012B00005D10121201D00F049FE00B1064620683D
:1012C000000317D5D5F88800216F20F0406008434F
:1012D000C5F88800206FB84204D1E86840F4801057
:1012E000E86007E0404505D10121201D00F02EFEF9
:1012F00000B106462068400317D5D5F88800616F15
:1013000020F040600843C5F88800606FB84204D1FF
:10131000E86840F48010E86007E0404505D101210D
:10132000201D00F013FE00B10646208840041AD5A7
:10133000D5F88800A16F20F040500843C5F8880018
:10134000A06FB0F1805F03D0B0F1005F05D00AE07C
:101350000221201D00F0FAFD03E00221584600F0B2
:101360008BFE00B106462088000407D5D5F888001A
:10137000E16F20F080400843C5F888002068C00372
:1013800007D555F8880FD4F8801020F000400843A6
:101390002860304600F004B80010024000700040A1
:1013A00018BCBDE8E08F00002DE9F0470F460500AE
:1013B00058D0404E306800F00700B84209D230687B
:1013C00020F0070038433060306800F00700B84272
:1013D00048D12878384CC0072CD06868032811D031
:1013E000022812D0216898B1490500293ADAA1688B
:1013F00021F003010143A160FFF72AFB804641F27F
:10140000883910E021688901EFE721688903ECE75A
:101410008907EAE7FFF71CFBA0EB0801494502D961
:101420000320BDE8F087A068696800F00C00B0EB0D
:10143000810FEFD12878800705D5A068A96820F032
:10144000F0000843A060306800F00700B8420BD9F4
:10145000306820F0070038433060306800F0070043
:10146000B84201D00120DCE72878400705D5A06804
:10147000E96820F4E0600843A0602878000706D5FA
:10148000A068296920F4605040EAC100A06000F023
:101490003FF8A168094AC1F30311515C01F01F0133
:1014A000C8400749086007480068BDE8F047FFF7F3
:1014B000FDBC000000200240001002407432000811
:1014C0000C000020040000200548064900688968D7
:1014D000054AC1F30221515C01F01F01C840704769
:1014E0000C00002000100240B432000805480649F4
:1014F00000688968054AC1F3C221515C01F01F01EF
:10150000C84070470C00002000100240B4320008B0
:1015100070B52549002318468A68CC6812F00C0281
:1015200004F00306214C4FEA640509D00C2A05D0CB
:10153000042A32D0082A00D1284670BD012E10D1CD
:101540000B681B0704D4D1F89430C3F3032302E0E3
:101550000B68C3F30313164E56F82330DAB10C2A86
:10156000EBD1C86800F00300022818D0032818D077
:101570001846CA68CB68C2F30212C3F3062343437A
:10158000521CB3FBF2F2C868C0F34160401C40003B
:10159000B2FBF0F070BD184670BD204670BD20460D
:1015A000E7E72846E5E70000001002400024F400C9
:1015B000843200082DE9F84304006FD0FE4DA8687E
:1015C00000F00C06E86800F003072078C00664D538
:1015D00076B10C2E01D1012F0AD0A069002828680D
:1015E0007AD040F001002860FFF732FA80465DE0D3
:1015F0002868800702D5A0690028DED0216A286803
:10160000000703D5286800F0F00004E0D5F8940046
:10161000F02202EA1010814216D9084600F0B0FD0F
:1016200000283BD1286840F0080028602868216A1B
:1016300020F0F000084328606868E16920F47F40EA
:1016400040EA0120686016E0286840F00800286041
:101650002868216A20F0F000084328606868E16982
:1016600020F47F4040EA0120686026B9206A00F03B
:1016700087FD0028D5D1FFF74BFFA968CF4AC1F3FA
:101680000311515C01F01F01C840CD490860CD48ED
:101690000068FFF70BFC00287ED12EE0CAE000BFF7
:1016A000FFF7D6F9A0EB0800022876D82868800753
:1016B000F6D5286840F0080028602868216A20F0E4
:1016C000F000084328606868E16920F47F4040EA40
:1016D0000120686011E0FFE720F001002860FFF7BB
:1016E000B7F9804606E000BFFFF7B2F9A0EB0800AB
:1016F0000228DAD828688007F6D42078C00740D0BE
:10170000082E18D00C2E01D1032F14D06068B0F52C
:10171000803F17D0B0F5A02F286817D020F4803074
:101720002860286820F4802028606068E0B1FFF716
:101730008FF9804614E02868800322D5606800286D
:1017400078D01EE0286840F48030EDE740F4802037
:101750002860F7E7FFF77CF9A0EB08006428A4D81D
:1017600028688003F6D50CE0FFF772F9804605E0A3
:10177000FFF76EF9A0EB0800642896D8286880036C
:10178000F6D4207880073BD5042E11D00C2E01D141
:10179000022F0DD0E06801E092E1F1E00028286816
:1017A0001ED040F480702860FFF752F907460CE025
:1017B000286840050CD5E0680028C1D008E000BFCB
:1017C000FFF746F9C01B022893D828684005F7D5D3
:1017D0006868217C20F0F85040EA016068600FE002
:1017E00020F480702860FFF733F9074605E000BF5A
:1017F000FFF72EF9C01B0228B1D828684005F7D49E
:101800002078000729D560690028D5F8940012D007
:1018100040F00100C5F89400FFF71AF9074604E00C
:10182000FFF716F9C01B022899D8D5F89400800755
:10183000F6D512E000E120F00100C5F89400FFF7B2
:1018400007F9074605E000BFFFF702F9C01B0228B1
:1018500085D8D5F894008007F6D42078400766D55F
:10186000A86D0027C00008D4A86D40F08050A8657E
:10187000A86D012700F08050009053480168C90509
:1018800012D40168814641F480710160FFF7E0F8ED
:10189000804605E0FFF7DCF8A0EB080002286FD8CF
:1018A000D9F80000C005F5D5A068012816D0052894
:1018B000D5F8900017D020F00100C5F89000D5F8B9
:1018C000900020F0040000BFC5F89000A06841F22D
:1018D0008839C0B1FFF7BCF880460FE0D5F890001A
:1018E00040F00100F0E740F00400C5F89000F5E793
:1018F000FFF7AEF8A0EB0801494541D8D5F89000B4
:101900008007F5D50EE0FFF7A3F8804606E000BF9C
:10191000FFF79EF8A0EB0801494531D8D5F89000B3
:101920008007F5D41FB1A86D20F08050A865A06A8B
:1019300038B302280AD00C2E7ED0286820F08070A0
:101940002860286810F0205F77D0AAE0E868E26A93
:1019500000F0030191422BD1216B00F070020901CC
:101960001039914224D1626B00F4FE41B1EB022F99
:101970001ED1A26B00F40031072A03D0012202E03D
:101980009DE089E00022914212D1A18F00F4C002B3
:1019900049084905A1F50011914209D194F8401078
:1019A00000F0C06049084906A1F1007181425CD095
:1019B0000C2E41D0286809E0001002407432000863
:1019C0000C000020040000200070004040017ED484
:1019D0002868C0007BD4286820F080702860FFF75A
:1019E00037F8064605E000BFFFF732F8801B0228F3
:1019F00065D828688001F7D4D4E90B016FF00F0295
:101A000002EB01110843A18F5204490802EB415136
:101A1000626B41EA0221084394F840104FF07E4285
:101A2000490802EB41610843A16B090940EA4140C2
:101A3000E968284A114001E049E02EE00843E860E7
:101A4000286840F080702860E86840F08070E860A6
:101A5000FEF7FEFF044604E0FEF7FAFF001B022833
:101A60002DD828688001F7D52FE0286880012CD474
:101A7000286840F080702860E86840F08070E86076
:101A8000FEF7E6FF044604E0FEF7E2FF001B022833
:101A900015D828688001F7D517E0E86820F0030022
:101AA000E860E8680C490840E860FEF7D1FF0446AA
:101AB00008E000BFFEF7CCFF001B022802D903207C
:101AC000BDE8F88328688001F4D40020F8E70120FD
:101AD000F6E700008C809DF9FFFFEEFE10B5401E7A
:101AE000B0F1807F01D3012010BD4FF0E024606190
:101AF0000F21601700F0D8FE0020A06107202061B0
:101B0000002010BD10B5040002D0606F10B107E0D6
:101B1000012010BD002084F87000204600F026F857
:101B2000242060672068016821F0010101602046DF
:101B300000F030FD0128ECD0606A10B1204600F0C2
:101B400099FC2068416821F49041416020688168D7
:101B500021F02A0181602068016841F001010160E3
:101B60002046BDE8104000F0E9BC0000F0B587B0A9
:101B7000044614216846FEF75EFB1D4F26680022CE
:101B80001C490223032407254FF09040BE4211D187
:101B90000E6E46F480460E660E6E06F4804605967E
:101BA000CE6C46F00106CE64C96C01F001010591CE
:101BB000610213E0104FBE4218D18E6D46F400361C
:101BC0008E658E6D06F400360596CE6C46F00106E5
:101BD000CE64C96C01F0010105910C21CDE900131F
:101BE00002AE694686E83400FEF7FEFD07B0F0BDA0
:101BF000003801400010024000440040FEE7016848
:101C00008A69D243920701D400228A6200688169FE
:101C1000C943C90703D0816941F00101816170475F
:101C20002DE9F0410446006890460E468069C043A5
:101C3000C00633D40025202720688069C043800671
:101C400015D5701CF8D0FEF703FFA0EB0800B042DA
:101C500001D8002EF0D154F8440F40F0200044F891
:101C600004096770A57025700120BDE8F081216826
:101C70001020C8612068C7612046FFF7C0FF54F8F4
:101C8000440B4168064A11404160206840F004005E
:101C900044F820096777A5772577E5E70020E4E792
:101CA00000E800FEF0B50568059C68684FF48066A2
:101CB000064FC1F3090106EA545641EA02413E4388
:101CC0001943B043214308436860F0BDFF63FF033D
:101CD0002DE9F0411D4617460E460446DDF81880F2
:101CE00008E0681C06D0FEF7B3FEA0EB0800A8428F
:101CF0000BD855B12068806936EA000012D0002068
:101D0000B842EED00020BDE8F08154F8440F40F016
:101D1000200044F80409202060700020A07020708A
:101D20000120F0E70120EBE72DE9F0410026904685
:101D30000F460446202525E0424639462046FFF757
:101D40006FFF78BB20688069C043800613D4206889
:101D50008169C943490701D4218DC1B9C56154F8CE
:101D6000440B4168104A1140416044F8206965778E
:101D7000A677267716E0FEF76BFEA0EB0800B842C8
:101D800008D83FB120688069C0434007D4D4002000
:101D9000BDE8F08154F8440F40F0200044F80409F5
:101DA000657026700120F3E700E800FE70B5164666
:101DB0000D4604460DE0324629462046FFF730FF27
:101DC00008B1012070BDFEF743FE801BA84207D872
:101DD00035B120688069C0438006ECD4002070BD16
:101DE00054F8440F40F0200044F8040920206070AB
:101DF0000020A0702070E4E770B516460D4604463A
:101E00000FE0324629462046FFF70AFF08B10120BD
:101E100070BD681C05D0FEF71BFE801BA84207D8CA
:101E200035B120688069C0438007EAD4002070BDC6
:101E300054F8440F40F0200044F80409202060705A
:101E40000020A0702070E2E7094808B5C16C41F09D
:101E50000101C164C16C01F001010091C16C41F04C
:101E60000201C164C06C00F00200009008BD0000D7
:101E700000100240134810B5114901601249416039
:101E800000210122C0E90212016141618161C16149
:101E90000162FEF737FE08B1FEF791FC0021094808
:101EA000FEF7DCFD08B1FEF78AFC00210548FEF7CD
:101EB00000FE002803D0BDE81040FEF780BC10BD36
:101EC0000058004014000020EC9C90100D4810B504
:101ED0000B4901604FF4E1314160002181600C2227
:101EE000C160C0E904128161C16101624162FFF712
:101EF00009FE002803D0BDE81040FEF760BC10BD0D
:101F000000380140600000200D4810B50B49016009
:101F10004FF416514160002181600C22C160C0E97C
:101F200004128161C16101624162FFF7EBFD00288B
:101F300003D0BDE81040FEF742BC10BD0044004095
:101F4000E0000020FEE7FEE7704700002DE9F041C9
:101F5000444C05468846E0680026810728680DD075
:101F6000E16801F00301814216D1A8B1E068696817
:101F7000C0F30210401C88420ED120E0012804D09A
:101F8000022805D0032807D108E02168890701E06D
:101F900021684905002907DB01265FE021688903E4
:101FA00002D421684903F5E7E1686A686FF00F031E
:101FB00021F0730103EB021211430143E160206839
:101FC00020F080602060FEF743FD074605E000BF7B
:101FD000FEF73EFDC01B022837D820680001F7D469
:101FE000B8F1000F18D0B8F1010F1ED0287D4FF0C6
:101FF0007E41400801EB4060A96840EA0120216968
:10200000194A114008432061206840F08060206038
:10201000FEF71EFD07461AE0A868E96800020909F4
:1020200040EA41402169114AEBE7288A10494008FB
:1020300001EB4050A96840EA012021690D4AE0E720
:10204000FEF706FDC01B022801D9032606E0206822
:102050000001F5D52069A969084320613046BDE833
:10206000F081000000100240FF80FFF9FF80FDFFBB
:102070000000E0FFFF809FFF2DE9F0413D4C064648
:102080008846E0680025810730680DD0E16801F0DE
:102090000301814216D1A8B1E0687168C0F3021053
:1020A000401C88420ED120E0012804D0022805D02F
:1020B000032807D108E02168890701E02168490564
:1020C000002907DB012551E02168890302D421683A
:1020D0004903F5E7E16872686FF00F0321F07301BF
:1020E00003EB021211430143E160206820F08050AD
:1020F0002060FEF7ADFC074605E000BFFEF7A8FC38
:10210000C01B022829D820688000F7D4B8F1000F3E
:1021100015D0307C4FF07E41400801EB4060B16843
:1021200040EA01206169144A114008436061206857
:1021300040F080502060FEF78BFC07460FE0B0684F
:10214000F1680002090940EA414061690B4AEBE786
:10215000FEF77EFCC01B022801D9032506E020689B
:102160008000F5D560697169084360612846BDE863
:10217000F081000000100240FF80FFF9FF80FDFFAA
:10218000F8B51C4D06460024A86DC00002D5FEF728
:102190002BFF0DE0A86D40F08050A865A86D00F001
:1021A00080500090FEF720FFA96D21F08051A965B5
:1021B000B0F5007F04D0802E07D94FF003040AE069
:1021C000802E08D9A02E01D804E001D1022402E01B
:1021D000702E00D101240848016821F00701214335
:1021E0000160006800F00700A04201D00120F8BDA6
:1021F0000020F8BD001002400020024070B52DED17
:10220000088B84B0064600200D46019002909FED99
:102210003DBB4FF4604000F0ADF84FF6FF7000900A
:10222000062301AA89213948FEF7C8FC0446FF218C
:1022300001A8FEF7AAFA9DF8061088420AD1FF21EC
:102240000DF10700FEF7A1FA9DF809109FED30ABE4
:10225000884204D0214630A000F016FB50E0BDF8C3
:10226000040040BAFEF785F99FED311B53EC112BAA
:10227000FEF79BF89FED308B53EC182BFEF70AF915
:102280009FED2F1B53EC112BFEF781F841EC190B3E
:10229000BDF8070040BAFEF76CF953EC1A2BFEF7B5
:1022A00084F853EC182BFEF7F5F89FED270B41EC63
:1022B000180B53EC102B51EC190BFEF77FF91FD8BC
:1022C00051EC190B9FED220B53EC102BFEF75EF92E
:1022D00016D853EC1B2B51EC180BFEF76FF90FD8E7
:1022E00053EC1A2B51EC180BFEF750F908D886ED79
:1022F000009B85ED008B002004B0BDEC088B70BD09
:102300000120F9E700000000000000001400002098
:1023100000000000000059404352435F4552524FB5
:10232000522C726574203D20307825780D0A00000B
:102330000000000000E0654000000000E0FFEF400A
:10234000000000000080464000000000000034C093
:102350000000000000405F4042F2202000F00AB878
:1023600010B543F2A20000F005F8BDE810401420BB
:10237000FEF728BA1CB5010A8DF804108DF8050087
:102380004FF6FF700090022301AA88210148FEF752
:10239000ABFC1CBD140000207047FEF76FBD10B5EC
:1023A000B8B0442122A8FDF746FF142133A8FDF759
:1023B00042FF88216846FDF73EFF0220C1012591BA
:1023C0001021229026912C900121CDE92D010A2186
:1023D0002F910721CDE93010329022A8FFF7EAF8BB
:1023E00008B172B6FEE70F20002433900320CDE938
:1023F00034043694042133A83794FEF7D5FF08B18E
:1024000072B6FEE783200F9400900E9415946846F0
:10241000FEF7F2FD08B172B6FEE74FF40070FEF76A
:10242000AFFD002801D072B6FEE738B010BD000045
:102430000D48016841F4700101600C48016841F0E9
:1024400001010160002181600268094B1A400260AD
:102450008214C260026822F4802202608161024913
:10246000C00380390860704788ED00E0001002402A
:10247000FFFFF6EA90F82410C90706D001684A6801
:10248000836A22F400321A434A6090F824108907C4
:1024900006D501684A68C36A22F480321A434A604A
:1024A00090F82410490706D501684A68036B22F4A6
:1024B00080221A434A6090F82410090706D5016863
:1024C0004A68436B22F400421A434A6090F8241091
:1024D000C90606D501688A68836B22F480521A43C4
:1024E0008A6090F82410890606D501688A68C36B53
:1024F00022F400521A438A6090F82410490611D53C
:1025000001684A68036C22F480121A434A60016C25
:10251000B1F5801F06D101684A68436C22F4C002FD
:102520001A434A6090F82410090606D501684A68E3
:10253000806C22F4002202434A607047F8B50026FE
:102540000446C667FEF784FA0546206800686FF007
:102550007E47000708D52B4600224FF40011204685
:10256000009700F03DF960B92068006840070AD57F
:102570002B4600224FF480012046009700F030F9EE
:1025800008B10320F8BD20206067A06784F8706060
:102590000020F8BD2DE9F0410446016880682269F9
:1025A000E3691043626900251A431043824F0A68A9
:1025B000824B1A4002430A6020684168E26821F4B5
:1025C0004051114341602168A069B94201D0226A9B
:1025D00010438A6822F4306202438A607849226894
:1025E00078488A420DD1D0F8880010F0030006D058
:1025F000012866D0022854D0032851D163E001207D
:102600004FE071498A420BD1D0F8880010F00C00DD
:1026100047D0042845D0082851D00C2840D152E09A
:102620006A498A420BD1D0F8880010F0300038D0C7
:10263000102846D0202842D0302831D143E06449C8
:102640008A420BD1D0F8880010F0C00029D0402871
:1026500037D0802833D0C02822D134E05D498A4267
:102660000ED1D0F8880010F440701AD0B0F5807FF9
:1026700027D0B0F5007F22D0B0F5407F10D122E006
:10268000BA420DD1D0F8880010F4406009D0B0F5FE
:10269000806F16D0B0F5006F11D0B0F5406F12D03A
:1026A00010204D4B00264FF40041BA422ED160B1AC
:1026B000022813D004280BD0082874D10DE0022082
:1026C000EFE70420EDE70820EBE7FEF7FDFE01E071
:1026D000FEF71EFF030001D169E00B46626802EBC2
:1026E000420098425FD8B3EB023F5CD8190E180243
:1026F00073084FEA3207C01959410023FDF760FD06
:10270000364AA0F5407191424FD94CE0E2694FF64C
:10271000EF778A4228D1092845D2DFE800F0050882
:1027200011440D4444441000FEF7CEFE01E0FEF7D4
:10273000DDFE030004D13AE0FEF7EAFEF9E70B46BE
:102740006068590001EB5001B1FBF0F080B2A0F1DC
:102750001001B94227D84FF6F0710140C0F3420092
:1027600001432068C16022E009281CD2DFE800F0A4
:102770000508111B0D1B1B1B1000FEF7A5FE01E039
:10278000FEF7B4FE030004D111E0FEF7C1FEF9E745
:102790000B46606803EB5001B1FBF0F080B2A0F192
:1027A0001001B94201D9012501E02168C8602666FF
:1027B00028466666BDE8F08100800040F369FFEFBF
:1027C0000038014000100240004400400048004032
:1027D000004C0040005000400024F400FFFC0F00BB
:1027E0002DE9F0479A4617460E4604464FF0000979
:1027F0004FF02008089D39E0681C37D0FEF728F913
:10280000A0EB0A00A84222D80DB32068016849074E
:102810002CD5C069C043000528D421684FF400605E
:1028200008622068016821F4D07101602068816825
:1028300021F001018160C4F87480C4F87880C4F884
:102840007C8000BF84F870900320BDE8F08720688A
:10285000016821F4D07101602068816821F00101D4
:102860008160C4F87480C4F87880EBE72068C069A0
:1028700036EA000004D00020B842BDD00020E4E7D2
:102880000120F9E7FEE700000FB4054B10B503A9DE
:10289000044A029800F0EEF810BC5DF814FB00004A
:1028A000A9310008100000200907090E002804DBE8
:1028B00000F1E02080F80014704700F00F0000F1F4
:1028C000E02080F8141D704702E008C8121F08C1FC
:1028D000002AFAD170477047002001E001C1121FA1
:1028E000002AFBD1704700002DE9FF5F82B0002174
:1028F000DDE90430020DDDF840B0034318D044F6A2
:102900001050A2F2FF3242431514119801281FD033
:10291000A5EB0B00401C5FEA000A4FF000064E4F8B
:10292000DFF83891B046504615D5CAF1000413E0DF
:10293000119801244AA3012801D16FEA0B010298E2
:10294000119AC0E90031C0E9024206B000F08EB829
:10295000CBF10000DFE704460021404A491842EB72
:102960000450CDE9001012E0E00707D032463B46A4
:1029700040464946FDF719FD8046894632463B46AA
:1029800010461946FDF711FD06460F466410002C4F
:10299000EAD1DDE90401DDE90023BAF1000F06DA2E
:1029A000FDF703FD42464B46FDF7FFFC05E0FDF752
:1029B00071FD42464B46FDF76DFD04460E46002272
:1029C000284BFDF7FBFD03D84FF0FF30014607E031
:1029D0000022254B20463146FDF738FCFDF7AAFEC4
:1029E000102409E0002C0ADB0A220023FDF7E8FB93
:1029F000039B30321A55641E50EA0102F2D1641C66
:102A0000039AC4F111031444119A012A03D001223C
:102A100008430DD10AE0084304D000204FF0110B09
:102A2000119072E7A3EB0B056D1E0DE05B4504DD15
:102A30004FF0000205F1010504E003DA4FF0000257
:102A4000A5F10105002AECD002981199C0E90231E4
:102A5000C0E9004579E70000000014400000F03FA5
:102A6000300000000000F0430000E03F30BCBDE853
:102A7000C09F00002DE9FF4F95B09B468946064652
:102A800000250FE2252877D100242746F84A0121A6
:102A9000059400E0044316F8013F203B01FA03F0DF
:102AA0001042F7D130782A2811D06FF02F033078F8
:102AB000A0F13002092A16D8059A44F0020402EB6C
:102AC000820203EB42021044761C0590EFE759F8AE
:102AD000042B0592002A03DA504244F40054059076
:102AE00044F00204761C30782E2816D116F8010F17
:102AF00044F004042A280DD06FF02F023078A0F1A2
:102B00003003092B09D807EB870302EB4303C718EF
:102B1000761CF3E759F8047B761C30786C280FD0CC
:102B200006DC4C2817D068280DD06A2814D104E0A0
:102B3000742810D07A280FD10DE044F400140AE074
:102B400044F4801401E044F440147278824202D1CB
:102B500004F58014761C761C307866280BD013DCC4
:102B6000582877D009DC002875D04528F6D04628AB
:102B7000F4D047281AD19DE118E0632835D06428A5
:102B800079D0652812D195E1702873D008DC6728C8
:102B9000F1D069286FD06E280DD06F2806D1B5E02E
:102BA00073282CD0752875D0782874D05A46179978
:102BB00090476D1C75E1C4F30250022809D0032828
:102BC0000DD0D9F8001004280DD00D6009F10409CA
:102BD00067E1D9F80010EA17C1E90052F6E7D9F821
:102BE00000100D80F2E70D70F0E719F8041B8DF866
:102BF000001000208DF80100EA46012003E059F89A
:102C000004AB4FF0FF3061074FF0000102D40DE03C
:102C100008F101018846B9420FDA8045F8DB1AF85D
:102C200008100029F4D108E008F10101884681422A
:102C3000FADB1AF808100029F6D105985B46A0EBDC
:102C4000080721463846179A00F097FA284400EB07
:102C5000080507E04DE029E10DE01AF8010B5A469E
:102C600017999047B8F10108F7D25B4621463846DC
:102C7000179A13E142E00A220092C4F302524FF085
:102C8000000A022A08D059F804CB032A4FEAEC7153
:102C90000AD00DE029E02AE009F1070121F007023E
:102CA000F2E802C1914609E00FFA8CFC4FEAEC71A0
:102CB000042A03D14FFA8CFC4FEAEC71002907DAA1
:102CC0000A460021DCF1000C61EB02012D2202E03A
:102CD000220504D52B228DF80420012203E0E2070F
:102CE00001D02022F7E7904659E00A2102E01022A5
:102CF0000DE010214FF0000A00910BE010224FF080
:102D0000000A44F004040827009203E008224FF070
:102D1000000A0092C4F30252022A05D059F804CBEB
:102D20000021032A08D009E009F1070121F0070278
:102D3000F2E802C1914605E01FFA8CFC042A01D199
:102D40000CF0FF0C4FF00008220728D5702806D0A1
:102D5000009B83F0100353EA0A0305D00EE04022E3
:102D60008DF80420012208E05CEA010206D030223E
:102D70008DF804208DF8050002229046009B83F018
:102D8000080353EA0A030AD15CEA010201D162078F
:102D900005D530228DF804204FF001087F1E5828F9
:102DA00004D034A003900EA802900DE036A0F9E7FD
:102DB00053466046009AFDF703FA84460398825C06
:102DC0000298401E029002705CEA0100F0D1029865
:102DD00006A9081A00F1200A600702D524F48034FD
:102DE00000E00127574502DDA7EB0A0000E00020C4
:102DF00000EB0A01009005984144401A0590E00359
:102E000006D45B462146179A059800F0B6F90544AA
:102E1000002706E001A85A46C05D179990476D1C2F
:102E20007F1C4745F6DBE0030CD55B462146179A2D
:102E3000059800F0A2F9054404E030205A4617999D
:102E400090476D1C0099481E00900029F5DC08E0B1
:102E5000029802995A460078491C029117999047A6
:102E60006D1CBAF10001AAF1010AF1DC65E1000074
:102E70000928010030313233343536373839616250
:102E80006364656600000000303132333435363714
:102E900038394142434445460000000000F05BF9E8
:102EA0000544761C307800287FF4ECAD19B0284634
:102EB00000F04EB9620700D4062709F1070222F09C
:102EC000070CFCE80223E14603F000485FEA080C27
:102ED00002D00FF2702C0DE05FEA045C02D50FF215
:102EE000682C07E05FEAC47C02D00FF2602C01E09E
:102EF000AFF2700C4FF0FF3823F00043CDF850C014
:102F000065280CD006DC452809D046281DD0472866
:102F10003DD13DE0662818D067287ED138E00021F9
:102F2000112F01DB112000E0781CCDE9000106A97A
:102F30000EA8FFF7D9FCDDE90F010E9A03910021DD
:102F4000009207F1010A04914DE04FF00040009714
:102F5000CDE9011006A90EA8FFF7C6FCDDE90F02B6
:102F600003920E9B11990022DDF80CA000930492AD
:102F700011B9791C00EB010AB7EB0A0004D4C0F1C7
:102F8000FF3007F1010A0490AAEB0700019044E02A
:102F9000012F00DA01270021112F01DD112000E0AF
:102FA0003846CDE9000106A90EA8FFF79DFCDDE932
:102FB0000F010E9A0391002104910092BA46210755
:102FC0000CD40399514500DA8A46BAF1010F05DDA8
:102FD000009AAAF10101515C302908D0B84202DA06
:102FE00010F1040F06DA0121CDE9011015E0AAF174
:102FF0000101E9E7002805DC049901440491AAEBEA
:10300000000102E0411C514500DD8A460499401A46
:10301000401C01904FF000400290200704D401981A
:10302000504501DBCDF8048000208DF84F00029858
:103030000DF14F07B0F1004F25D02B200E900298D4
:103040004FF0020800280CDA404202902D200E902A
:1030500007E00A210298FDF7C9FA3031029007F81B
:10306000011DB8F10001A8F10108F2DC0298002866
:10307000EFD1791E0E980870307800F0200040F0F3
:10308000450007F8020D12A8C01B00F107081498AC
:10309000007800B1012000EB0A01019801EBE0711A
:1030A00005984144401A401E0590E00306D45B4653
:1030B0002146179A059800F060F8054414980078A6
:1030C00018B15A46179990476D1CE00324D55B460A
:1030D0002146179A059800F050F805441CE0049822
:1030E000002807DBDDE90301884203DD0098405C2E
:1030F000179901E0179930205A469047049805F136
:103100000105401C04900198401E019004D12E201E
:103110005A46179990476D1CBAF10001AAF1010AAD
:10312000DDDC05E017F8010B5A46179990476D1C36
:10313000B8F10001A8F10108F4DC5B462146179ABA
:103140000598ABE62D0000002B00000020000000D9
:1031500030BCBDE8C08F2DE9F041044600251E4675
:103160001746880404D405E039462020B0476D1C7A
:10317000641EF9D52846BDE8F0812DE9F0410446EA
:1031800000251E469046C80301D5302700E02027C1
:10319000880404D505E041463846B0476D1C641EDE
:1031A000F9D52846BDE8F08138B504468DF8000011
:1031B00069460320ABBE204638BD000086B0FDF74F
:1031C00065FEFFF7ECF8FEF73FFEFEF753FEFEF755
:1031D0007DFEFEF799FEFFF7C3F8FFF7BDF850B18B
:1031E0000CA000BFFFF750FB04A902A8FFF706F8E8
:1031F00018B10DA0F6E711A0F4E79DED040B14A0A3
:103200008DED000B9DED020B53EC102BFFF73CFBFB
:10321000EAE7000053485433785F496E69742045EB
:103220005252200D0A0000004765745F48756D69B1
:1032300074757265204552520D0A0000534854338C
:10324000785F496E6974204F4B200D0A0000000022
:1032500074656D70657261747572653D25362E32C8
:103260006C6668756D69646974793D25362E326CBB
:10327000660D0A00000000000000000001020304C7
:1032800006070809A0860100400D0300801A060009
:1032900000350C0040420F0080841E0000093D00F4
:1032A00000127A000024F40000366E010048E801A4
:1032B000006CDC020000000001020304DC320008A4
:1032C0000000002014000000C8280008F0320008A8
:1032D000140000204C050000D82800080100000060
:1032E000100000000000000000093D000000000088
:040000050800018965
:00000001FF
